:0300000002069065
:0C069000787FE4F6D8FD7581400206D7A3
:030996000000005E
:10071C004D003741542B43574D4F44453D320D0A44
:10072C006026004441542B43575341503D224553BE
:10073C005038323636222C2230313233343536377B
:10074C003839222C31312C330D0A48006C41542B92
:10075C005253540D0A4D000041542B4349504D55F2
:10076C00583D310D0A55001A41542B4349505345FD
:10077C00525645523D312C353030300D0A4B000E5F
:10078C0041542B43495053454E443D4400300000E6
:02079C0000005B
:0E0896003EF583E0F5997F017E007D007C0039
:0608A40090008112044BDC
:1008AA00E4900085F0900085E0FFE4FCFDFE9000F6
:1008BA0081E0F8A3E0F9A3E0FAA3E0FBD312043A3B
:1008CA00401200007F167E80DEFEDFFC900085E08D
:0408DA0004F080D1D5
:0108DE0022F7
:0A082100D2B47F647E007D007C00ED
:06082B0090008112044B55
:1008310090008512045700000000E47F64FEFDFC77
:10084100900081E0F8A3E0F9A3E0FAA3E0FB120332
:10085100EBA804A905AA06AB07900085E0FCA3E07C
:10086100FDA3E0FEA3E0FFD312043A4027900085E8
:10087100E0FCA3E0FDA3E0FEA3E0FFE4FAF9F8EF5A
:100881002401FFEA3EFEE93DFDE83CFC90008512B3
:04089100044B80A6EE
:010895002240
:04000300AB07AA0697
:100007009000007C007D0AAF03AE02120384C3E5B3
:0A001700829FE5839E5003A380E959
:0100210022BC
:100943007F0A7E00120003C2967F1D7E0012000301
:10095300D2967F037E00120003A296E433F97F1937
:070963007E00120003AF014A
:01096A00226A
:10097D00C296D296E4FF0FEFB403FBA296E433FFC9
:01098D002247
:10096B00C296EFB40102D2967F057E00120003D22D
:02097B009622C2
:05091600900075EFF0F8
:10091B00E4F9900075E0FFA801088002C313D8FC2E
:10092B00900076F05401FFF012096B7F057E0012E8
:07093B00000309E9B408DB29
:010942002292
:1008DF009000757401F0E4A3F0F912097DEF601533
:1008EF00900075E0FFA801088002C333D8FCFF9089
:1008FF000076E02FF07F067E0012000309E9B408AE
:06090F00D9900076E0FF24
:0109150022BF
:10079F001209437FCC1209167F441209161209431E
:1007AF007FCC1209167FBE1209161208DF90003691
:1007BF00EFF01208DF900035EFF0FEA3E07C00248D
:1007CF0000FFEC3EFEBEFF08BFFF057EFF7FFF224E
:1007DF00D3EF9400EE94804026EFF4FFEEF4FEEF9B
:1007EF002401FFE43EFE7C007D05120384EF7803B5
:1007FF00CEC313CE13D8F92400FFEE3480FE227C33
:10080F00007D05120384EF7803CEC313CE13D8F9FE
:01081F00FFD9
:0108200022B5
:08098E008F993099FDC29922F6
:08060000900075EEF0A3EFF08D
:10060800E4A3F078787C007D017BFF7A097996FE77
:100618007F0312035E900075E0FAA3E0FB7C037D84
:10062800E8FFAE021203967E007F64CFCDCFCECC1A
:10063800CE120396900078EFF07C007D64AF03AE95
:10064800021203967E007F0ACFCDCFCECCCE120306
:1006580096A3EFF0900075E0FEA3E0FF7C007D0A12
:10066800120396AF0590007AEFF0900078E02430FE
:10067800900030F0900079E02430900031F0A374BD
:070688002EF0ED2430A3F079
:01068F002248
:10048800E4900074F0C20090006AF0A3F0E598547C
:100498003F4440F59853A23F538EEF438E01438E5D
:1004A8000475D6FF75D7D0438E10D29CD2ACD2AF8C
:1004B800E4F5B175B2FF90006AF0C2B3C2B47FE848
:1004C8007E03FDFC12082BE4900074F0900074E0A9
:1004D800FFC36480948D5017EF3395E0FE74372F77
:1004E800F5827400120896900074E004F080DD7FB5
:1004F800E87E03120827E4900074F0900074E0FF8F
:10050800C3648094A65017EF3395E0FE74442FF52A
:10051800827400120896900074E004F080DD7FE891
:100528007E03120827E4900074F0900074E0FFC383
:10053800648094885017EF3395E0FE746C2FF58231
:100548007400120896900074E004F080DD7F887EC5
:1005580013120827E4900074F0900074E0FFC3645D
:1005680080948D5017EF3395E0FE74002FF5827458
:1005780000120896900074E004F080DD7FD07E07BA
:10058800120827E4900074F0900074E0FFC36480C0
:1005980094955017EF3395E0FE741A2FF582740086
:1005A800120896900074E004F080DD7FD07E071278
:1005B800082712079F7F507EC312000312079F7FF0
:1005C800507EC312000312079F12060020930B12DD
:1005D800089C209302B2903093FD20920B12089C45
:1005E800209202B2913092FD2094DB12089C209454
:0805F80002B2B72094D080FB91
:03002300020026B2
:10002600C0E0C0F0C083C082C0D075D000C000C0A0
:0D00360001C002C003C004C005C006C00721
:1000430020980302026CC29890006AE02421F8A66B
:10005300997821E6FFB44505E004F0800590006A35
:10006300E4F090006AE0C3940A500302026CEF6468
:100073004560030202627822E6645360030202626F
:1000830008E6645060030202627825E6FF644C7060
:100093004908E66445704308E66444703D08E6FE9B
:1000A300B4310F7824E6FDB44B02C290EDB447029D
:1000B300D290EEB4320F7824E6FEB44B02C291EE36
:1000C300B44702D2917828E6B4330F7824E6FEB41D
:1000D3004B02C2B7EEB44702D2B7EF644A701F783F
:1000E30026E6B4441908E6B4511408E6B4310F788F
:1000F30024E6FFB44B02D2B3EFB44702C2B3782471
:10010300E66446702708E6644D702108E664517082
:100113001B08E66443701508E6B45310120821C2A5
:10012300B4120823120821C2B41208237824E66407
:1001330043600302026208E6645860030202620835
:10014300E66453600302026208E6644A6003020243
:100153006290007E209005744BF080037447F0900A
:10016300007F209105744BF080037447F09000806A
:1001730020B705744BF080037447F090007DE4F0E2
:1001830090007DE0FFC36480948B5017EF3395E0BC
:10019300FE740E2FF582740012089690007DE00421
:1001A300F080DD75993012089C75992C12089C75A6
:1001B300993212089C75993612089C75990D12088C
:1001C3009C75990A12089C75994512089C75995358
:1001D30012089C75995012089C75994C12089C75CD
:1001E300994512089C75994412089C759931120817
:1001F3009C90007E12089975994C12089C7599453C
:1002030012089C75994412089C75993212089C90A7
:10021300007F12089975994C12089C75994512082C
:100223009C75994412089C75993312089C90008020
:100233001208999000301208999000311208999091
:1002430000321208999000331208997599501208D8
:100253009C75995312089C75994512089C800090CF
:10026300006AE4F090006AE4F0309904C299C20095
:10027300D007D006D005D004D003D002D001D000DF
:0B028300D0D0D082D083D0F0D0E03289
:10069C00020488E493A3F8E493A34003F68001F2E8
:1006AC0008DFF48029E493A3F85407240CC8C3335F
:1006BC00C4540F4420C8834004F456800146F6DF2E
:1006CC00E4800B010204081020408090071CE47E9B
:1006DC00019360BCA3FF543F30E509541FFEE49323
:1006EC00A360010ECF54C025E060A840B8E493A3EA
:1006FC00FAE493A3F8E493A3C8C582C8CAC583CA15
:10070C00F0A3C8C582C8CAC583CADFE9DEE780BECC
:01079E00005A
:10028E00E709F608DFFA8046E709F208DFFA803E52
:10029E0088828C83E709F0A3DFFA8032E309F6083F
:1002AE00DFFA8078E309F208DFFA807088828C83A7
:1002BE00E309F0A3DFFA806489828A83E0A3F6085B
:1002CE00DFFA805889828A83E0A3F208DFFA804C35
:1002DE0080D280FA80C680D4806980F2803380100C
:1002EE0080A680EA809A80A880DA80E280CA803375
:1002FE0089828A83ECFAE493A3C8C582C8CCC583ED
:10030E00CCF0A3C8C582C8CCC583CCDFE9DEE780BC
:10031E000D89828A83E493A3F608DFF9ECFAA9F03B
:10032E00EDFB2289828A83ECFAE0A3C8C582C8CC91
:10033E00C583CCF0A3C8C582C8CCC583CCDFEADEAA
:10034E00E880DB89828A83E493A3F208DFF980CC0C
:10035E0088F0EF60010E4E60C388F0ED2402B40405
:10036E000050B9F582EB2402B4040050AF232345AC
:06037E0082239002DE73F1
:10038400EF8DF0A4A8F0CF8CF0A428CE8DF0A42E8D
:02039400FE2247
:10039600BC000BBE0029EF8DF084FFADF022E4CC4B
:1003A600F875F008EF2FFFEE33FEEC33FCEE9DEC14
:1003B600984005FCEE9DFE0FD5F0E9E4CEFD22ED5A
:1003C600F8F5F0EE8420D21CFEADF075F008EF2FA4
:1003D600FFED33FD4007985006D5F0F222C398FD95
:0503E6000FD5F0EA2232
:1003EB00E88FF0A4CC8BF0A42CFCE98EF0A42CFCB1
:1003FB008AF0EDA42CFCEA8EF0A4CDA8F08BF0A42F
:10040B002DCC3825F0FDE98FF0A42CCD35F0FCEB8D
:10041B008EF0A4FEA9F0EB8FF0A4CFC5F02ECD3952
:0F042B00FEE43CFCEAA42DCE35F0FDE43CFC22BF
:10043A00EB9FF5F0EA9E42F0E99D42F0E89C45F018
:01044A00228F
:0C044B00ECF0A3EDF0A3EEF0A3EFF02224
:10045700A8828583F0D083D08212046E12046E12B4
:10046700046E12046EE473E493A3C583C5F0C583D9
:10047700C8C582C8F0A3C583C5F0C583C8C582C8EF
:010487002252
:00000001FF
